{
  "_format": "hh-sol-artifact-1",
  "contractName": "NomadsERC721",
  "sourceName": "contracts/NomadsTinder.sol",
  "abi": [
    {
      "inputs": [],
      "stateMutability": "nonpayable",
      "type": "constructor"
    },
    {
      "anonymous": false,
      "inputs": [
        {
          "indexed": true,
          "internalType": "address",
          "name": "owner",
          "type": "address"
        },
        {
          "indexed": true,
          "internalType": "address",
          "name": "approved",
          "type": "address"
        },
        {
          "indexed": true,
          "internalType": "uint256",
          "name": "tokenId",
          "type": "uint256"
        }
      ],
      "name": "Approval",
      "type": "event"
    },
    {
      "anonymous": false,
      "inputs": [
        {
          "indexed": true,
          "internalType": "address",
          "name": "owner",
          "type": "address"
        },
        {
          "indexed": true,
          "internalType": "address",
          "name": "operator",
          "type": "address"
        },
        {
          "indexed": false,
          "internalType": "bool",
          "name": "approved",
          "type": "bool"
        }
      ],
      "name": "ApprovalForAll",
      "type": "event"
    },
    {
      "anonymous": false,
      "inputs": [
        {
          "indexed": true,
          "internalType": "address",
          "name": "from",
          "type": "address"
        },
        {
          "indexed": true,
          "internalType": "address",
          "name": "to",
          "type": "address"
        },
        {
          "indexed": true,
          "internalType": "uint256",
          "name": "tokenId",
          "type": "uint256"
        }
      ],
      "name": "Transfer",
      "type": "event"
    },
    {
      "inputs": [
        {
          "internalType": "address",
          "name": "to",
          "type": "address"
        },
        {
          "internalType": "uint256",
          "name": "tokenId",
          "type": "uint256"
        }
      ],
      "name": "approve",
      "outputs": [],
      "stateMutability": "nonpayable",
      "type": "function"
    },
    {
      "inputs": [
        {
          "internalType": "address",
          "name": "owner",
          "type": "address"
        }
      ],
      "name": "balanceOf",
      "outputs": [
        {
          "internalType": "uint256",
          "name": "",
          "type": "uint256"
        }
      ],
      "stateMutability": "view",
      "type": "function"
    },
    {
      "inputs": [
        {
          "internalType": "uint256",
          "name": "tokenId",
          "type": "uint256"
        }
      ],
      "name": "getApproved",
      "outputs": [
        {
          "internalType": "address",
          "name": "",
          "type": "address"
        }
      ],
      "stateMutability": "view",
      "type": "function"
    },
    {
      "inputs": [
        {
          "internalType": "address",
          "name": "owner",
          "type": "address"
        },
        {
          "internalType": "address",
          "name": "operator",
          "type": "address"
        }
      ],
      "name": "isApprovedForAll",
      "outputs": [
        {
          "internalType": "bool",
          "name": "",
          "type": "bool"
        }
      ],
      "stateMutability": "view",
      "type": "function"
    },
    {
      "inputs": [
        {
          "internalType": "address",
          "name": "_userOne",
          "type": "address"
        },
        {
          "internalType": "address",
          "name": "_userTwo",
          "type": "address"
        },
        {
          "internalType": "string",
          "name": "tokenURI",
          "type": "string"
        }
      ],
      "name": "mintNFT",
      "outputs": [],
      "stateMutability": "nonpayable",
      "type": "function"
    },
    {
      "inputs": [],
      "name": "name",
      "outputs": [
        {
          "internalType": "string",
          "name": "",
          "type": "string"
        }
      ],
      "stateMutability": "view",
      "type": "function"
    },
    {
      "inputs": [
        {
          "internalType": "uint256",
          "name": "tokenId",
          "type": "uint256"
        }
      ],
      "name": "ownerOf",
      "outputs": [
        {
          "internalType": "address",
          "name": "",
          "type": "address"
        }
      ],
      "stateMutability": "view",
      "type": "function"
    },
    {
      "inputs": [
        {
          "internalType": "address",
          "name": "from",
          "type": "address"
        },
        {
          "internalType": "address",
          "name": "to",
          "type": "address"
        },
        {
          "internalType": "uint256",
          "name": "tokenId",
          "type": "uint256"
        }
      ],
      "name": "safeTransferFrom",
      "outputs": [],
      "stateMutability": "nonpayable",
      "type": "function"
    },
    {
      "inputs": [
        {
          "internalType": "address",
          "name": "from",
          "type": "address"
        },
        {
          "internalType": "address",
          "name": "to",
          "type": "address"
        },
        {
          "internalType": "uint256",
          "name": "tokenId",
          "type": "uint256"
        },
        {
          "internalType": "bytes",
          "name": "data",
          "type": "bytes"
        }
      ],
      "name": "safeTransferFrom",
      "outputs": [],
      "stateMutability": "nonpayable",
      "type": "function"
    },
    {
      "inputs": [
        {
          "internalType": "address",
          "name": "operator",
          "type": "address"
        },
        {
          "internalType": "bool",
          "name": "approved",
          "type": "bool"
        }
      ],
      "name": "setApprovalForAll",
      "outputs": [],
      "stateMutability": "nonpayable",
      "type": "function"
    },
    {
      "inputs": [
        {
          "internalType": "bytes4",
          "name": "interfaceId",
          "type": "bytes4"
        }
      ],
      "name": "supportsInterface",
      "outputs": [
        {
          "internalType": "bool",
          "name": "",
          "type": "bool"
        }
      ],
      "stateMutability": "view",
      "type": "function"
    },
    {
      "inputs": [],
      "name": "symbol",
      "outputs": [
        {
          "internalType": "string",
          "name": "",
          "type": "string"
        }
      ],
      "stateMutability": "view",
      "type": "function"
    },
    {
      "inputs": [
        {
          "internalType": "uint256",
          "name": "tokenId",
          "type": "uint256"
        }
      ],
      "name": "tokenURI",
      "outputs": [
        {
          "internalType": "string",
          "name": "",
          "type": "string"
        }
      ],
      "stateMutability": "view",
      "type": "function"
    },
    {
      "inputs": [
        {
          "internalType": "address",
          "name": "from",
          "type": "address"
        },
        {
          "internalType": "address",
          "name": "to",
          "type": "address"
        },
        {
          "internalType": "uint256",
          "name": "tokenId",
          "type": "uint256"
        }
      ],
      "name": "transferFrom",
      "outputs": [],
      "stateMutability": "nonpayable",
      "type": "function"
    }
  ],
  "bytecode": "0x60806040523480156200001157600080fd5b506040518060400160405280600a81526020017f436f6e6e6563744e4654000000000000000000000000000000000000000000008152506040518060400160405280600281526020017f434e000000000000000000000000000000000000000000000000000000000000815250816000908051906020019062000096929190620000b8565b508060019080519060200190620000af929190620000b8565b505050620001cd565b828054620000c69062000168565b90600052602060002090601f016020900481019282620000ea576000855562000136565b82601f106200010557805160ff191683800117855562000136565b8280016001018555821562000136579182015b828111156200013557825182559160200191906001019062000118565b5b50905062000145919062000149565b5090565b5b80821115620001645760008160009055506001016200014a565b5090565b600060028204905060018216806200018157607f821691505b602082108114156200019857620001976200019e565b5b50919050565b7f4e487b7100000000000000000000000000000000000000000000000000000000600052602260045260246000fd5b61287980620001dd6000396000f3fe608060405234801561001057600080fd5b50600436106100ea5760003560e01c806370a082311161008c578063a22cb46511610066578063a22cb4651461025b578063b88d4fde14610277578063c87b56dd14610293578063e985e9c5146102c3576100ea565b806370a08231146101f15780637c818f541461022157806395d89b411461023d576100ea565b8063095ea7b3116100c8578063095ea7b31461016d57806323b872dd1461018957806342842e0e146101a55780636352211e146101c1576100ea565b806301ffc9a7146100ef57806306fdde031461011f578063081812fc1461013d575b600080fd5b61010960048036038101906101049190611b94565b6102f3565b6040516101169190611f0e565b60405180910390f35b6101276103d5565b6040516101349190611f29565b60405180910390f35b61015760048036038101906101529190611be6565b610467565b6040516101649190611ea7565b60405180910390f35b61018760048036038101906101829190611b58565b6104ad565b005b6101a3600480360381019061019e9190611a52565b6105c5565b005b6101bf60048036038101906101ba9190611a52565b610625565b005b6101db60048036038101906101d69190611be6565b610645565b6040516101e89190611ea7565b60405180910390f35b61020b60048036038101906102069190611986565b6106f7565b60405161021891906120cb565b60405180910390f35b61023b600480360381019061023691906119eb565b6107af565b005b610245610814565b6040516102529190611f29565b60405180910390f35b61027560048036038101906102709190611b1c565b6108a6565b005b610291600480360381019061028c9190611aa1565b6108bc565b005b6102ad60048036038101906102a89190611be6565b61091e565b6040516102ba9190611f29565b60405180910390f35b6102dd60048036038101906102d891906119af565b610a31565b6040516102ea9190611f0e565b60405180910390f35b60007f80ac58cd000000000000000000000000000000000000000000000000000000007bffffffffffffffffffffffffffffffffffffffffffffffffffffffff1916827bffffffffffffffffffffffffffffffffffffffffffffffffffffffff191614806103be57507f5b5e139f000000000000000000000000000000000000000000000000000000007bffffffffffffffffffffffffffffffffffffffffffffffffffffffff1916827bffffffffffffffffffffffffffffffffffffffffffffffffffffffff1916145b806103ce57506103cd82610ac5565b5b9050919050565b6060600080546103e490612321565b80601f016020809104026020016040519081016040528092919081815260200182805461041090612321565b801561045d5780601f106104325761010080835404028352916020019161045d565b820191906000526020600020905b81548152906001019060200180831161044057829003601f168201915b5050505050905090565b600061047282610b2f565b6004600083815260200190815260200160002060009054906101000a900473ffffffffffffffffffffffffffffffffffffffff169050919050565b60006104b882610645565b90508073ffffffffffffffffffffffffffffffffffffffff168373ffffffffffffffffffffffffffffffffffffffff161415610529576040517f08c379a00000000000000000000000000000000000000000000000000000000081526004016105209061208b565b60405180910390fd5b8073ffffffffffffffffffffffffffffffffffffffff16610548610b7a565b73ffffffffffffffffffffffffffffffffffffffff161480610577575061057681610571610b7a565b610a31565b5b6105b6576040517f08c379a00000000000000000000000000000000000000000000000000000000081526004016105ad9061202b565b60405180910390fd5b6105c08383610b82565b505050565b6105d66105d0610b7a565b82610c3b565b610615576040517f08c379a000000000000000000000000000000000000000000000000000000000815260040161060c906120ab565b60405180910390fd5b610620838383610cd0565b505050565b610640838383604051806020016040528060008152506108bc565b505050565b6000806002600084815260200190815260200160002060009054906101000a900473ffffffffffffffffffffffffffffffffffffffff169050600073ffffffffffffffffffffffffffffffffffffffff168173ffffffffffffffffffffffffffffffffffffffff1614156106ee576040517f08c379a00000000000000000000000000000000000000000000000000000000081526004016106e59061206b565b60405180910390fd5b80915050919050565b60008073ffffffffffffffffffffffffffffffffffffffff168273ffffffffffffffffffffffffffffffffffffffff161415610768576040517f08c379a000000000000000000000000000000000000000000000000000000000815260040161075f90611feb565b60405180910390fd5b600360008373ffffffffffffffffffffffffffffffffffffffff1673ffffffffffffffffffffffffffffffffffffffff168152602001908152602001600020549050919050565b6107bb83600754610f37565b6107c760075482611111565b600760008154809291906107da90612384565b91905055506107eb82600754610f37565b6107f760075482611111565b6007600081548092919061080a90612384565b9190505550505050565b60606001805461082390612321565b80601f016020809104026020016040519081016040528092919081815260200182805461084f90612321565b801561089c5780601f106108715761010080835404028352916020019161089c565b820191906000526020600020905b81548152906001019060200180831161087f57829003601f168201915b5050505050905090565b6108b86108b1610b7a565b8383611185565b5050565b6108cd6108c7610b7a565b83610c3b565b61090c576040517f08c379a0000000000000000000000000000000000000000000000000000000008152600401610903906120ab565b60405180910390fd5b610918848484846112f2565b50505050565b606061092982610b2f565b600060066000848152602001908152602001600020805461094990612321565b80601f016020809104026020016040519081016040528092919081815260200182805461097590612321565b80156109c25780601f10610997576101008083540402835291602001916109c2565b820191906000526020600020905b8154815290600101906020018083116109a557829003601f168201915b5050505050905060006109d361134e565b90506000815114156109e9578192505050610a2c565b600082511115610a1e578082604051602001610a06929190611e83565b60405160208183030381529060405292505050610a2c565b610a2784611365565b925050505b919050565b6000600560008473ffffffffffffffffffffffffffffffffffffffff1673ffffffffffffffffffffffffffffffffffffffff16815260200190815260200160002060008373ffffffffffffffffffffffffffffffffffffffff1673ffffffffffffffffffffffffffffffffffffffff16815260200190815260200160002060009054906101000a900460ff16905092915050565b60007f01ffc9a7000000000000000000000000000000000000000000000000000000007bffffffffffffffffffffffffffffffffffffffffffffffffffffffff1916827bffffffffffffffffffffffffffffffffffffffffffffffffffffffff1916149050919050565b610b38816113cd565b610b77576040517f08c379a0000000000000000000000000000000000000000000000000000000008152600401610b6e9061206b565b60405180910390fd5b50565b600033905090565b816004600083815260200190815260200160002060006101000a81548173ffffffffffffffffffffffffffffffffffffffff021916908373ffffffffffffffffffffffffffffffffffffffff160217905550808273ffffffffffffffffffffffffffffffffffffffff16610bf583610645565b73ffffffffffffffffffffffffffffffffffffffff167f8c5be1e5ebec7d5bd14f71427d1e84f3dd0314c0f7b2291e5b200ac8c7c3b92560405160405180910390a45050565b600080610c4783610645565b90508073ffffffffffffffffffffffffffffffffffffffff168473ffffffffffffffffffffffffffffffffffffffff161480610c895750610c888185610a31565b5b80610cc757508373ffffffffffffffffffffffffffffffffffffffff16610caf84610467565b73ffffffffffffffffffffffffffffffffffffffff16145b91505092915050565b8273ffffffffffffffffffffffffffffffffffffffff16610cf082610645565b73ffffffffffffffffffffffffffffffffffffffff1614610d46576040517f08c379a0000000000000000000000000000000000000000000000000000000008152600401610d3d90611f6b565b60405180910390fd5b600073ffffffffffffffffffffffffffffffffffffffff168273ffffffffffffffffffffffffffffffffffffffff161415610db6576040517f08c379a0000000000000000000000000000000000000000000000000000000008152600401610dad90611fab565b60405180910390fd5b610dc1838383611439565b610dcc600082610b82565b6001600360008573ffffffffffffffffffffffffffffffffffffffff1673ffffffffffffffffffffffffffffffffffffffff1681526020019081526020016000206000828254610e1c9190612237565b925050819055506001600360008473ffffffffffffffffffffffffffffffffffffffff1673ffffffffffffffffffffffffffffffffffffffff1681526020019081526020016000206000828254610e7391906121b0565b92505081905550816002600083815260200190815260200160002060006101000a81548173ffffffffffffffffffffffffffffffffffffffff021916908373ffffffffffffffffffffffffffffffffffffffff160217905550808273ffffffffffffffffffffffffffffffffffffffff168473ffffffffffffffffffffffffffffffffffffffff167fddf252ad1be2c89b69c2b068fc378daa952ba7f163c4a11628f55a4df523b3ef60405160405180910390a4610f3283838361143e565b505050565b600073ffffffffffffffffffffffffffffffffffffffff168273ffffffffffffffffffffffffffffffffffffffff161415610fa7576040517f08c379a0000000000000000000000000000000000000000000000000000000008152600401610f9e9061204b565b60405180910390fd5b610fb0816113cd565b15610ff0576040517f08c379a0000000000000000000000000000000000000000000000000000000008152600401610fe790611f8b565b60405180910390fd5b610ffc60008383611439565b6001600360008473ffffffffffffffffffffffffffffffffffffffff1673ffffffffffffffffffffffffffffffffffffffff168152602001908152602001600020600082825461104c91906121b0565b92505081905550816002600083815260200190815260200160002060006101000a81548173ffffffffffffffffffffffffffffffffffffffff021916908373ffffffffffffffffffffffffffffffffffffffff160217905550808273ffffffffffffffffffffffffffffffffffffffff16600073ffffffffffffffffffffffffffffffffffffffff167fddf252ad1be2c89b69c2b068fc378daa952ba7f163c4a11628f55a4df523b3ef60405160405180910390a461110d6000838361143e565b5050565b61111a826113cd565b611159576040517f08c379a00000000000000000000000000000000000000000000000000000000081526004016111509061200b565b60405180910390fd5b806006600084815260200190815260200160002090805190602001906111809291906117aa565b505050565b8173ffffffffffffffffffffffffffffffffffffffff168373ffffffffffffffffffffffffffffffffffffffff1614156111f4576040517f08c379a00000000000000000000000000000000000000000000000000000000081526004016111eb90611fcb565b60405180910390fd5b80600560008573ffffffffffffffffffffffffffffffffffffffff1673ffffffffffffffffffffffffffffffffffffffff16815260200190815260200160002060008473ffffffffffffffffffffffffffffffffffffffff1673ffffffffffffffffffffffffffffffffffffffff16815260200190815260200160002060006101000a81548160ff0219169083151502179055508173ffffffffffffffffffffffffffffffffffffffff168373ffffffffffffffffffffffffffffffffffffffff167f17307eab39ab6107e8899845ad3d59bd9653f200f220920489ca2b5937696c31836040516112e59190611f0e565b60405180910390a3505050565b6112fd848484610cd0565b61130984848484611443565b611348576040517f08c379a000000000000000000000000000000000000000000000000000000000815260040161133f90611f4b565b60405180910390fd5b50505050565b606060405180602001604052806000815250905090565b606061137082610b2f565b600061137a61134e565b9050600081511161139a57604051806020016040528060008152506113c5565b806113a4846115da565b6040516020016113b5929190611e83565b6040516020818303038152906040525b915050919050565b60008073ffffffffffffffffffffffffffffffffffffffff166002600084815260200190815260200160002060009054906101000a900473ffffffffffffffffffffffffffffffffffffffff1673ffffffffffffffffffffffffffffffffffffffff1614159050919050565b505050565b505050565b60006114648473ffffffffffffffffffffffffffffffffffffffff16611787565b156115cd578373ffffffffffffffffffffffffffffffffffffffff1663150b7a0261148d610b7a565b8786866040518563ffffffff1660e01b81526004016114af9493929190611ec2565b602060405180830381600087803b1580156114c957600080fd5b505af19250505080156114fa57506040513d601f19601f820116820180604052508101906114f79190611bbd565b60015b61157d573d806000811461152a576040519150601f19603f3d011682016040523d82523d6000602084013e61152f565b606091505b50600081511415611575576040517f08c379a000000000000000000000000000000000000000000000000000000000815260040161156c90611f4b565b60405180910390fd5b805181602001fd5b63150b7a0260e01b7bffffffffffffffffffffffffffffffffffffffffffffffffffffffff1916817bffffffffffffffffffffffffffffffffffffffffffffffffffffffff1916149150506115d2565b600190505b949350505050565b60606000821415611622576040518060400160405280600181526020017f30000000000000000000000000000000000000000000000000000000000000008152509050611782565b600082905060005b6000821461165457808061163d90612384565b915050600a8261164d9190612206565b915061162a565b60008167ffffffffffffffff811115611696577f4e487b7100000000000000000000000000000000000000000000000000000000600052604160045260246000fd5b6040519080825280601f01601f1916602001820160405280156116c85781602001600182028036833780820191505090505b5090505b6000851461177b576001826116e19190612237565b9150600a856116f091906123cd565b60306116fc91906121b0565b60f81b818381518110611738577f4e487b7100000000000000000000000000000000000000000000000000000000600052603260045260246000fd5b60200101907effffffffffffffffffffffffffffffffffffffffffffffffffffffffffffff1916908160001a905350600a856117749190612206565b94506116cc565b8093505050505b919050565b6000808273ffffffffffffffffffffffffffffffffffffffff163b119050919050565b8280546117b690612321565b90600052602060002090601f0160209004810192826117d8576000855561181f565b82601f106117f157805160ff191683800117855561181f565b8280016001018555821561181f579182015b8281111561181e578251825591602001919060010190611803565b5b50905061182c9190611830565b5090565b5b80821115611849576000816000905550600101611831565b5090565b600061186061185b8461210b565b6120e6565b90508281526020810184848401111561187857600080fd5b6118838482856122df565b509392505050565b600061189e6118998461213c565b6120e6565b9050828152602081018484840111156118b657600080fd5b6118c18482856122df565b509392505050565b6000813590506118d8816127e7565b92915050565b6000813590506118ed816127fe565b92915050565b60008135905061190281612815565b92915050565b60008151905061191781612815565b92915050565b600082601f83011261192e57600080fd5b813561193e84826020860161184d565b91505092915050565b600082601f83011261195857600080fd5b813561196884826020860161188b565b91505092915050565b6000813590506119808161282c565b92915050565b60006020828403121561199857600080fd5b60006119a6848285016118c9565b91505092915050565b600080604083850312156119c257600080fd5b60006119d0858286016118c9565b92505060206119e1858286016118c9565b9150509250929050565b600080600060608486031215611a0057600080fd5b6000611a0e868287016118c9565b9350506020611a1f868287016118c9565b925050604084013567ffffffffffffffff811115611a3c57600080fd5b611a4886828701611947565b9150509250925092565b600080600060608486031215611a6757600080fd5b6000611a75868287016118c9565b9350506020611a86868287016118c9565b9250506040611a9786828701611971565b9150509250925092565b60008060008060808587031215611ab757600080fd5b6000611ac5878288016118c9565b9450506020611ad6878288016118c9565b9350506040611ae787828801611971565b925050606085013567ffffffffffffffff811115611b0457600080fd5b611b108782880161191d565b91505092959194509250565b60008060408385031215611b2f57600080fd5b6000611b3d858286016118c9565b9250506020611b4e858286016118de565b9150509250929050565b60008060408385031215611b6b57600080fd5b6000611b79858286016118c9565b9250506020611b8a85828601611971565b9150509250929050565b600060208284031215611ba657600080fd5b6000611bb4848285016118f3565b91505092915050565b600060208284031215611bcf57600080fd5b6000611bdd84828501611908565b91505092915050565b600060208284031215611bf857600080fd5b6000611c0684828501611971565b91505092915050565b611c188161226b565b82525050565b611c278161227d565b82525050565b6000611c388261216d565b611c428185612183565b9350611c528185602086016122ee565b611c5b816124ba565b840191505092915050565b6000611c7182612178565b611c7b8185612194565b9350611c8b8185602086016122ee565b611c94816124ba565b840191505092915050565b6000611caa82612178565b611cb481856121a5565b9350611cc48185602086016122ee565b80840191505092915050565b6000611cdd603283612194565b9150611ce8826124cb565b604082019050919050565b6000611d00602583612194565b9150611d0b8261251a565b604082019050919050565b6000611d23601c83612194565b9150611d2e82612569565b602082019050919050565b6000611d46602483612194565b9150611d5182612592565b604082019050919050565b6000611d69601983612194565b9150611d74826125e1565b602082019050919050565b6000611d8c602983612194565b9150611d978261260a565b604082019050919050565b6000611daf602e83612194565b9150611dba82612659565b604082019050919050565b6000611dd2603e83612194565b9150611ddd826126a8565b604082019050919050565b6000611df5602083612194565b9150611e00826126f7565b602082019050919050565b6000611e18601883612194565b9150611e2382612720565b602082019050919050565b6000611e3b602183612194565b9150611e4682612749565b604082019050919050565b6000611e5e602e83612194565b9150611e6982612798565b604082019050919050565b611e7d816122d5565b82525050565b6000611e8f8285611c9f565b9150611e9b8284611c9f565b91508190509392505050565b6000602082019050611ebc6000830184611c0f565b92915050565b6000608082019050611ed76000830187611c0f565b611ee46020830186611c0f565b611ef16040830185611e74565b8181036060830152611f038184611c2d565b905095945050505050565b6000602082019050611f236000830184611c1e565b92915050565b60006020820190508181036000830152611f438184611c66565b905092915050565b60006020820190508181036000830152611f6481611cd0565b9050919050565b60006020820190508181036000830152611f8481611cf3565b9050919050565b60006020820190508181036000830152611fa481611d16565b9050919050565b60006020820190508181036000830152611fc481611d39565b9050919050565b60006020820190508181036000830152611fe481611d5c565b9050919050565b6000602082019050818103600083015261200481611d7f565b9050919050565b6000602082019050818103600083015261202481611da2565b9050919050565b6000602082019050818103600083015261204481611dc5565b9050919050565b6000602082019050818103600083015261206481611de8565b9050919050565b6000602082019050818103600083015261208481611e0b565b9050919050565b600060208201905081810360008301526120a481611e2e565b9050919050565b600060208201905081810360008301526120c481611e51565b9050919050565b60006020820190506120e06000830184611e74565b92915050565b60006120f0612101565b90506120fc8282612353565b919050565b6000604051905090565b600067ffffffffffffffff8211156121265761212561248b565b5b61212f826124ba565b9050602081019050919050565b600067ffffffffffffffff8211156121575761215661248b565b5b612160826124ba565b9050602081019050919050565b600081519050919050565b600081519050919050565b600082825260208201905092915050565b600082825260208201905092915050565b600081905092915050565b60006121bb826122d5565b91506121c6836122d5565b9250827fffffffffffffffffffffffffffffffffffffffffffffffffffffffffffffffff038211156121fb576121fa6123fe565b5b828201905092915050565b6000612211826122d5565b915061221c836122d5565b92508261222c5761222b61242d565b5b828204905092915050565b6000612242826122d5565b915061224d836122d5565b9250828210156122605761225f6123fe565b5b828203905092915050565b6000612276826122b5565b9050919050565b60008115159050919050565b60007fffffffff0000000000000000000000000000000000000000000000000000000082169050919050565b600073ffffffffffffffffffffffffffffffffffffffff82169050919050565b6000819050919050565b82818337600083830152505050565b60005b8381101561230c5780820151818401526020810190506122f1565b8381111561231b576000848401525b50505050565b6000600282049050600182168061233957607f821691505b6020821081141561234d5761234c61245c565b5b50919050565b61235c826124ba565b810181811067ffffffffffffffff8211171561237b5761237a61248b565b5b80604052505050565b600061238f826122d5565b91507fffffffffffffffffffffffffffffffffffffffffffffffffffffffffffffffff8214156123c2576123c16123fe565b5b600182019050919050565b60006123d8826122d5565b91506123e3836122d5565b9250826123f3576123f261242d565b5b828206905092915050565b7f4e487b7100000000000000000000000000000000000000000000000000000000600052601160045260246000fd5b7f4e487b7100000000000000000000000000000000000000000000000000000000600052601260045260246000fd5b7f4e487b7100000000000000000000000000000000000000000000000000000000600052602260045260246000fd5b7f4e487b7100000000000000000000000000000000000000000000000000000000600052604160045260246000fd5b6000601f19601f8301169050919050565b7f4552433732313a207472616e7366657220746f206e6f6e20455243373231526560008201527f63656976657220696d706c656d656e7465720000000000000000000000000000602082015250565b7f4552433732313a207472616e736665722066726f6d20696e636f72726563742060008201527f6f776e6572000000000000000000000000000000000000000000000000000000602082015250565b7f4552433732313a20746f6b656e20616c7265616479206d696e74656400000000600082015250565b7f4552433732313a207472616e7366657220746f20746865207a65726f2061646460008201527f7265737300000000000000000000000000000000000000000000000000000000602082015250565b7f4552433732313a20617070726f766520746f2063616c6c657200000000000000600082015250565b7f4552433732313a2061646472657373207a65726f206973206e6f74206120766160008201527f6c6964206f776e65720000000000000000000000000000000000000000000000602082015250565b7f45524337323155524953746f726167653a2055524920736574206f66206e6f6e60008201527f6578697374656e7420746f6b656e000000000000000000000000000000000000602082015250565b7f4552433732313a20617070726f76652063616c6c6572206973206e6f7420746f60008201527f6b656e206f776e6572206e6f7220617070726f76656420666f7220616c6c0000602082015250565b7f4552433732313a206d696e7420746f20746865207a65726f2061646472657373600082015250565b7f4552433732313a20696e76616c696420746f6b656e2049440000000000000000600082015250565b7f4552433732313a20617070726f76616c20746f2063757272656e74206f776e6560008201527f7200000000000000000000000000000000000000000000000000000000000000602082015250565b7f4552433732313a2063616c6c6572206973206e6f7420746f6b656e206f776e6560008201527f72206e6f7220617070726f766564000000000000000000000000000000000000602082015250565b6127f08161226b565b81146127fb57600080fd5b50565b6128078161227d565b811461281257600080fd5b50565b61281e81612289565b811461282957600080fd5b50565b612835816122d5565b811461284057600080fd5b5056fea264697066735822122094c33b5b75e1e36bfa812f6337994d2c33f4df9de1ef1f2395cd6793d528290264736f6c63430008040033",
  "linkReferences": {},
  "deployedLinkReferences": {}
}